:08000000803102288731FD2F39
:100EF0008731B3278731080021000D1322000D131D
:100F000021008D1322008D13080087317C27873143
:100F1000873178278731882F80310228F100F2014C
:100F2000962F00000130F0007008F207710872027D
:100F3000031C9B2F9C2F912F0800F501F601A82F71
:100F40000F3087318E2787310130F5070030F63DAD
:100F500074087602031DAE2F73087502031CB12FAF
:100F6000B22FA02F080022000D178D130030FA00B9
:100F70000030F9000130F800F430F7008731D02755
:100F8000873122000D138D170030FA000030F90070
:100F90000130F800F430F7008731D027873108009E
:100FA00000302000A3000030A2000030A10000307B
:100FB000A000EA2F2930F3000030F40087319D278C
:100FC000873101302000A0070030A13D0030A23D54
:100FD0000030A33D7A082302031DF82F790822026E
:100FE000031DF82F78082102031DF82F770820022F
:100FF000031CFB2FFC2FDA2F080020008731852FE0
:020000040001F9
:04000E00E201FF3FCD
:00000001FF
